{
  "contractName": "Check",
  "abi": [
    {
      "constant": true,
      "inputs": [
        {
          "name": "",
          "type": "address"
        }
      ],
      "name": "checkimage",
      "outputs": [
        {
          "name": "",
          "type": "bool"
        }
      ],
      "payable": false,
      "stateMutability": "view",
      "type": "function"
    },
    {
      "constant": true,
      "inputs": [
        {
          "name": "",
          "type": "address"
        }
      ],
      "name": "signimage",
      "outputs": [
        {
          "name": "",
          "type": "bytes32"
        }
      ],
      "payable": false,
      "stateMutability": "view",
      "type": "function"
    },
    {
      "constant": false,
      "inputs": [
        {
          "name": "image",
          "type": "uint256"
        },
        {
          "name": "recipient",
          "type": "address"
        }
      ],
      "name": "Checkimage",
      "outputs": [],
      "payable": false,
      "stateMutability": "nonpayable",
      "type": "function"
    },
    {
      "constant": true,
      "inputs": [
        {
          "name": "rec",
          "type": "address"
        }
      ],
      "name": "mapreturn",
      "outputs": [
        {
          "name": "",
          "type": "bool"
        }
      ],
      "payable": false,
      "stateMutability": "view",
      "type": "function"
    }
  ],
  "bytecode": "0x608060405263499602d260405180828152602001915050604051809103902060009060001916905534801561003357600080fd5b50610354806100436000396000f300608060405260043610610062576000357c0100000000000000000000000000000000000000000000000000000000900463ffffffff1680633bdf9793146100675780634b441ef9146100c25780639a59cfb91461011d578063f23614cd1461016a575b600080fd5b34801561007357600080fd5b506100a8600480360381019080803573ffffffffffffffffffffffffffffffffffffffff1690602001909291905050506101c9565b604051808215151515815260200191505060405180910390f35b3480156100ce57600080fd5b50610103600480360381019080803573ffffffffffffffffffffffffffffffffffffffff16906020019092919050505061021f565b604051808215151515815260200191505060405180910390f35b34801561012957600080fd5b5061016860048036038101908080359060200190929190803573ffffffffffffffffffffffffffffffffffffffff16906020019092919050505061023f565b005b34801561017657600080fd5b506101ab600480360381019080803573ffffffffffffffffffffffffffffffffffffffff169060200190929190505050610310565b60405180826000191660001916815260200191505060405180910390f35b6000600160008373ffffffffffffffffffffffffffffffffffffffff1673ffffffffffffffffffffffffffffffffffffffff16815260200190815260200160002060009054906101000a900460ff169050919050565b60016020528060005260406000206000915054906101000a900460ff1681565b6000826040518082815260200191505060405180910390209050600054600019168160001916141561030b5760018060008473ffffffffffffffffffffffffffffffffffffffff1673ffffffffffffffffffffffffffffffffffffffff16815260200190815260200160002060006101000a81548160ff02191690831515021790555080600260008473ffffffffffffffffffffffffffffffffffffffff1673ffffffffffffffffffffffffffffffffffffffff16815260200190815260200160002081600019169055505b505050565b600260205280600052604060002060009150905054815600a165627a7a723058208d1860392a200d01839c9f808e07b5607e8dcebf3fcbaee051fa14602ed1a0320029",
  "source": "pragma solidity ^0.4.18;\n\n\ncontract Check { \n\n    bytes32 private originalimage = keccak256(uint256(1234567890));//hashed value of key\n    mapping (address => bool) public checkimage;\n    mapping (address => bytes32) public signimage;\n\n    function Checkimage(uint256  image, address recipient) public {\n        var signimg = keccak256(image);\n        if ( signimg == originalimage ) {\n            checkimage[recipient] = true;  \n\t    signimage[recipient] = signimg;\n        }\n    }\n\n    function mapreturn(address rec) public view returns(bool){\n        return checkimage[rec];\n\n    }\n    \n}\n",
  "sourcePath": "/home/pi/Desktop/Github/Blockchain_dev/Projects/Check/contracts/Check.sol",
  "compiler": {
    "name": "solc",
    "version": "0.4.26+commit.4563c3fc.Emscripten.clang"
  },
  "schemaVersion": "3.1.0",
  "updatedAt": "2020-05-26T16:41:31.910Z",
  "networkType": "ethereum",
  "devdoc": {
    "methods": {}
  },
  "userdoc": {
    "methods": {}
  }
}